:020000040800F2
:10000000001B002055020008950200089702000816
:100010009B0200089F020008A302000800000000E5
:10002000000000000000000000000000A70200081F
:10003000A902000800000000075D0008795E0008C2
:100040006F0200086F0200086F0200086F020008CC
:100050006F0200086F0200086F0200086F020008BC
:100060006F0200086F0200086F0200086F020008AC
:100070006F0200086F0200086F0200086F0200089C
:100080006F0200086F0200086F0200086F0200088C
:100090006F0200086F0200086F0200086F0200087C
:1000A0006F0200086F0200086F0200086F0200086C
:1000B0006F0200086F0200086F0200086F0200085C
:1000C0006F0200086F0200086F0200086F0200084C
:1000D0006F020008CD0200086F0200086F020008DE
:1000E0006F0200086F0200086F02000800F002F8BB
:1000F00000F03AF80AA090E8000C82448344AAF188
:100100000107DA4501D100F02FF8AFF2090EBAE885
:100110000F0013F0010F18BFFB1A43F0010318473B
:100120006C6000008C600000103A24BF78C878C171
:10013000FAD8520724BF30C830C144BF04680C60ED
:10014000704700000023002400250026103A28BF35
:1001500078C1FBD8520728BF30C148BF0B60704739
:100160001FB51FBD10B510BD05F029FF1146FFF7E3
:10017000F7FF00F009F805F047FF03B4FFF7F2FFBF
:1001800003BC05F04BFF000001F0ACFF01F088FF5D
:1001900001F0A1FF02F0AAFA02F0CAFA64214FF4BA
:1001A000615002F06FF864214FF4615002F0BEF824
:1001B000244802F0D6FA01224021234800F042FFF1
:1001C0000121224800F061FA02F04BF802F03FF8FA
:1001D000642001F048FF02F044F84FF487614FF0CB
:1001E000804001F0FBFE4FF487614FF0804001F04A
:1001F000F7FE4FF487614FF0804001F0F3FE4FF4BB
:1002000087614FF0804001F0EFFE4FF487611048A6
:1002100001F0E4FE4FF487610D4801F0E1FE0FE0CC
:100220004FF4003000F04CFA50B102F010F80548DD
:1002300002F064F902F0EBF94FF4003000F054FAE8
:10024000EEE7000090000020003801405800024016
:10025000000400400948804709480047FEE7FEE7E0
:10026000FEE7FEE7FEE7FEE7FEE7FEE7FEE7FEE766
:1002700004480549054A064B70470000EF03000893
:10028000ED00000800150020001B002000170020D2
:1002900000170020704700BFFEE700BFFEE700BF69
:1002A000FEE700BFFEE77047704710B505F00AFD96
:1002B000044615480078401C13490870204605F094
:1002C00005FD02F07BFF02F081FE10BD70B505F068
:1002D000F9FC05460C480078401C0B49087028467C
:1002E00005F0F4FC2021094800F056FF38B107481A
:1002F00000F0E8FEC4B22146044800F0DFFE2021F1
:10030000024800F056FF70BD49000020003801404F
:100310000CB50020019000906C48006840F48030DB
:100320006A49086000BF6948006800F40030009026
:100330000198401C0190009818B90198B0F5A06F81
:10034000F1D16248006800F4003010B10120009043
:1003500001E0002000900098012843D15C4800682B
:1003600040F010005A4908600846006820F0030079
:1003700008600846006840F0020008605348406882
:10038000524948600846406848600846406840F462
:10039000806048600846406820F47C104860084649
:1003A000406840F4E81048600846006840F08070FB
:1003B000086000BF4548006800F000700028F9D0D0
:1003C0004248406820F003004049486008464068C1
:1003D00040F00200486000BF3C48406800F00C005C
:1003E0000828F9D10CBD10B5FFF792FF10BD10B56C
:1003F0003648006840F0010034490860084640680B
:10040000344908403149486008460068324908408C
:100410002E4908600846006820F4802008600846DD
:10042000406820F4FE0048604FF41F008860FFF72A
:10043000DAFF4FF000602949086010BD10B50021B7
:1004400000200022214B5B6803F00C0121B104293C
:1004500006D0082928D107E0214B224C236027E051
:100460001F4B204C236023E0184B5B6803F4701093
:10047000164B5B6803F48032022303EB904022B9F1
:10048000194B4343174C23600DE0104B5B6803F49A
:10049000003323B1144B4343124C236003E0104B51
:1004A0004343104C236003E00D4B0E4C236000BF10
:1004B00000BF064B5B68C3F303130C4CE15C094BB4
:1004C0001B68CB40074C236010BD000000100240A9
:1004D000002002400000FFF8FFFFF6FE08ED00E0FC
:1004E00000127A000000002000093D0004000020F6
:1004F00001684FF6FE721140016000210160416009
:100500008160C1608D49884208D18C4908394968A9
:1005100041F00F01894A083A51608AE08749143155
:10052000884208D185490839496841F0F001834A79
:10053000083A51607DE081492831884208D17F49DD
:100540000839496841F470617C4A083A516070E0AA
:100550007A493C31884208D178490839496841F4E0
:100560007041764A083A516063E0744950318842DC
:1005700008D172490839496841F470216F4A083A34
:10058000516056E06D496431884208D16B490839A1
:10059000496841F47001694A083A516049E0674985
:1005A0007831884208D165490839496841F070615D
:1005B000624A083A51603CE06149884206D1011F15
:1005C000096841F00F01021F116032E05C491431EB
:1005D000884208D15A49091F096841F0F001584A78
:1005E000121F116025E056492831884208D154492C
:1005F000091F096841F47061514A121F116018E027
:100600004F493C31884208D14D49091F096841F4DE
:1006100070414B4A121F11600BE04949503188422A
:1006200007D14749091F096841F47021444A121F44
:100630001160704710B50022026847F6F0739A43C4
:100640000C6A8B6823430C6923434C6923438C69F0
:100650002343CC6923434C6A23438C6A23431A43C4
:100660000260CB6843600B6883604B68C36010BD59
:100670000021016041608160C1600161416181616F
:10068000C161016241628162704721B1026842F03A
:100690000102026004E002684FF6FE731A40026035
:1006A00070471AB103680B43036002E003688B4391
:1006B00003607047416070470146486880B27047E8
:1006C00001460020002201F080531BB11C4B083B67
:1006D0001A6802E0194B083B1A6802EA01030BB1E1
:1006E000012000E00020704700F0805119B114494A
:1006F000091F086002E01149083948607047014647
:100700000020002201F080531BB10D4B083B1A68FA
:1007100002E00A4B083B1A6802EA01030BB1012010
:1007200000E00020704700F0805119B10449091F12
:10073000086002E00149083948607047080002403B
:1007400008040240DF48006840F00100DD4908600D
:1007500008464068DC490840DA49486008460068B5
:10076000DA490840D74908600846006820F480202C
:1007700008600846406820F4FE0048604FF41F00FF
:1007800088607047CF49096821F48031CD4A1160F3
:100790001146096821F480211160B0F5803F03D033
:1007A000B0F5802F0ED106E0C649096841F48031CA
:1007B000C44A116007E0C349096841F4A021C14A55
:1007C000116000E000BF00BF704710B50146002275
:1007D000002300204A11012A02D1BA4C236806E006
:1007E000022A02D1B74C236A01E0B64C636A01F0D9
:1007F0001F02012494401C400CB1012000E00020A5
:1008000010BD38B5002000900024002500BF312025
:10081000FFF7DBFF05460098401C00900098B0F5FC
:10082000A06F01D0002DF2D03120FFF7CEFF08B12C
:10083000012400E00024204638BD01460020A14AE2
:10084000106820F0F80040EAC10010607047A0492D
:1008500008607047024600209A4B586820F47C10CC
:1008600042EA01031843974B58607047984908665D
:10087000704701460020934A506820F00300084367
:10088000506070478F48406800F00C007047014688
:1008900000208C4A506820F0F000084350607047F8
:1008A00001460020874A506820F4E0600843506009
:1008B000704701460020834A506820F4605040EAA7
:1008C000C1005060704729B17E4A527A02437D4B85
:1008D0005A7204E07B4A527A82437A4B5A727047CA
:1008E0007B49D8310860704701460020754A50683E
:1008F00020F440400843506070470021714A203284
:100900001170704A82F82010012802D004280AD100
:1009100004E001216B4A2032117005E00521694A8B
:100920002032117000E000BF00BF704769490860C5
:1009300070476449096A0143624A11627047654918
:1009400044390860704730B500210022002400239C
:100950005C4D6D6805F00C0121B1042905D0082912
:1009600023D105E05C4D056022E05B4D05601FE092
:10097000544D6D6805F47012524D6D6805F4803465
:10098000022505EB92421CB9544D554305600BE01E
:100990004C4D6D6805F400351DB1504D5543056053
:1009A00002E04D4D5543056002E04B4D056000BF30
:1009B00000BF444D6D6805F0F0010909484D6B5CBE
:1009C0000568DD4045603F4D6D6805F4E061090A4A
:1009D000434D6B5C4568DD4085603A4D6D6805F4BC
:1009E0006051C90A3E4D6B5C4568DD40C560354DC0
:1009F0006D6805F44041890B3A4D6B5CC568B5FBE9
:100A0000F3F5056130BD29B12E4A526902432D4BE1
:100A10005A6104E02B4A526982432A4B5A6170475B
:100A200029B1284A92690243264B9A6104E0254A7B
:100A300092698243234B9A61704729B1214AD26956
:100A40000243204BDA6104E01E4AD26982431D4B07
:100A5000DA61704729B11B4AD2680243194BDA6048
:100A600004E0184AD2688243164BDA60704729B115
:100A7000144A12690243134B1A6104E0114A1269C5
:100A80008243104B1A617047124940390860704721
:100A90000F49C86470470B49C87170470948406ADC
:100AA00040F0807007494862704701460020054ABF
:100AB00092680A400AB1012000E000207047014915
:100AC00088727047001002400000FFF8FFFFF6FE3A
:100AD000000042428004424200127A0000093D00B8
:100AE000140000202400002010B50446CC488442A5
:100AF00008D101210420FFF7ADFF00210420FFF7FA
:100B0000A9FF46E0C748844208D101210820FFF729
:100B1000A1FF00210820FFF79DFF3AE0C248844270
:100B200008D101211020FFF795FF00211020FFF7C9
:100B300091FF2EE0BD48844208D101212020FFF71B
:100B400089FF00212020FFF785FF22E0B84884427A
:100B500008D101214020FFF77DFF00214020FFF751
:100B600079FF16E0B348844208D101218020FFF7C5
:100B700071FF00218020FFF76DFF0AE0AE4884423C
:100B800007D101218015FFF765FF0021A015FFF7B0
:100B900061FF10BD10B501210846FFF75BFF002182
:100BA0000120FFF757FF10BD2DE9F0410246002557
:100BB0000026002000230024002791F803C00CF039
:100BC0000F0591F803C00CF0100CBCF1000F03D01E
:100BD00091F802C04CEA050591F800C0BCF1000F85
:100BE00031D0146800202BE04FF0010C0CFA00F318
:100BF000B1F800C00CEA03069E4220D183004FF0FA
:100C00000F0C0CFA03F7BC4305FA03FC4CEA04048E
:100C100091F803C0BCF1280F06D14FF0010C0CFA7B
:100C200000FCC2F814C00AE091F803C0BCF1480F00
:100C300005D14FF0010C0CFA00FCC2F810C0401CAA
:100C40000828D1D31460B1F800C0BCF1FF0F34DD27
:100C5000546800202EE000F1080C4FF0010808FA5B
:100C60000CF3B1F800C00CEA03069E4221D18300C8
:100C70004FF00F0C0CFA03F7BC4305FA03FC4CEAE7
:100C8000040491F803C0BCF1280F05D100F1080C51
:100C900008FA0CF8C2F8148091F803C0BCF1480FB0
:100CA00007D100F1080C4FF0010808FA0CF8C2F85F
:100CB0001080401C0828CED35460BDE8F0814FF668
:100CC000FF710180022181700421C17070470246CA
:100CD000002093680B400BB1012000E0002070471A
:100CE0000146886880B2704702460020D3680B40F6
:100CF0000BB1012000E0002070470146C86880B2B7
:100D0000704701617047416170470AB1016100E0BD
:100D100041617047C16070474FF480320A4382617D
:100D20008161826182698269704702460020434B7B
:100D300018684FF68073184040EA021008433F4B92
:100D4000186070473E49C8617047F0B50A460023F5
:100D500000240021002500F00046B6F1004F02D12A
:100D6000364EF16901E0354E7168C0F3034583B238
:100D700000F44016B6F5401F08D121F070612F4EE7
:100D8000766826F070662D4F7E6012E000F48016C3
:100D9000B6F5801F06D1032606FA05F4A14341F0FB
:100DA000706106E0460D360103FA06F6B14341F0E4
:100DB000706122B1460D360103FA06F6314300F0A8
:100DC0000046B6F1004F02D11C4EF16101E01B4E0E
:100DD0007160F0BD30B500228B071C0F0F2303FAA2
:100DE00004F2164B08338C1053F824309343134C01
:100DF00008348D1044F8253023468C1053F82430E5
:100E00008C07240F00FA04F423430C4C08348D1093
:100E100044F8253030BD0A49DC31086070470000D5
:100E200000080140000C0140001001400014014086
:100E300000180140001C014000200140000001405A
:100E40000000204210B50446FB48844209D101212C
:100E50008803FFF7FFFD00214FF48040FFF7FAFD04
:100E600032E0F648844209D101214804FFF7FFFD32
:100E700000214FF40030FFF7FAFD25E0F0488442EE
:100E800009D101218804FFF7F2FD00214FF48020F1
:100E9000FFF7EDFD18E0EB48844209D10121C804B9
:100EA000FFF7E5FD00214FF40020FFF7E0FD0BE028
:100EB000E548844208D101210805FFF7D8FD00214B
:100EC0004FF48010FFF7D3FD10BD2DE9F04786B039
:100ED00005460E460024A24600BFA1460027B08961
:100EE00000B100BF2F462C8A4CF6FF700440F088FA
:100EF00004432C82AC894EF6F3100440B08831894B
:100F00000843718908430443AC81AC8A4FF6FF4023
:100F10000440B0890443AC8201A8FFF714FDC64821
:100F2000874202D1DDF810A001E0DDF80CA0A8890D
:100F300000F4004040B10AEBCA0000EB0A1031682F
:100F40004900B0FBF1F807E00AEBCA0000EB0A1019
:100F500031688900B0FBF1F86420B8FBF0F00401BF
:100F60002009642101FB1089A88900F4004040B1E8
:100F7000322000EBC900B0FBF1F000F007000443A1
:100F800008E0322000EB09106421B0FBF1F000F022
:100F90000F0004432C8106B0BDE8F0874FF41651D2
:100FA000016000218180C18001810C2141810021EB
:100FB0008181704710B502460020108A4FF2FF036E
:100FC00018400B884C8823438C882343CC882343C8
:100FD0001843108210BD0021018041808180C180B2
:100FE000704721B1828942F40052828104E08289F3
:100FF0004DF6FF731A4082817047F0B50346002416
:1010000000260025002040F66A17B94200D100BF33
:101010001846C1F3421401F01F06012707FA06F52E
:10102000012C01D10C3004E0022C01D1103000E081
:1010300014301AB107682F43076002E00768AF4316
:101040000760F0BD1AB1838A0B43838202E0838A72
:101050008B4383827047028A4FF6F0731A400282F4
:10106000028A0A430282704782894FF2FF731A4054
:10107000828182890A438281704721B1828942F04C
:101080000202828104E082894FF6FD731A40828158
:101090007047028A4FF6DF731A400282028A0A43BF
:1010A0000282704721B1028A42F48042028204E047
:1010B000028A4BF6FF731A4002827047C1F308029E
:1010C0008280704701468888C0F308007047818994
:1010D00041F0010181817047028BD2B20283028B01
:1010E00042EA012202837047028B02F47F420283AC
:1010F000028B0A430283704721B1828A42F02002A8
:10110000828204E0828A4FF6DF731A40828270473F
:1011100021B1828A42F01002828204E0828A4FF674
:10112000EF731A408282704721B1828A42F008022E
:10113000828204E0828A4FF6F7731A4082827047F7
:1011400021B1828942F40042828103E08289C2F3A4
:101150000E028281704721B1828A42F4006282824B
:1011600004E0828A4FF2FF731A4082827047828ABB
:101170004FF6FB731A408282828A0A43828270474A
:1011800021B1828A42F00202828204E0828A4FF612
:10119000FD731A408282704702460020B1F5007F3D
:1011A00000D100BF13880B400BB1012000E00020EC
:1011B000704701F40072B2F5007F00D100BFCA434E
:1011C0000280704770B502460024002300250020ED
:1011D00040F66A16B14200D100BFC1F3421501F0DA
:1011E0001F03012606FA03F3012D02D1968933402D
:1011F00006E0022D02D1168A334001E0968A334080
:101200000C12012606FA04F41688344013B10CB10E
:10121000012000E0002070BD10B50022002340F640
:101220006A14A14200D100BF0A1201249440A3B263
:10123000DC43048010BD0000003801400044004041
:1012400000480040004C00400050004010B50446EB
:10125000FE48844208D10121C014FFF7FBFB0021A6
:10126000E014FFF7F7FBC4E0B4F1804F08D101218F
:101270000846FFF7FCFB00210120FFF7F8FBB8E070
:10128000F348844208D101210220FFF7F0FB00213E
:101290000220FFF7ECFBACE0EE48844208D10121CC
:1012A0000420FFF7E4FB00210420FFF7E0FBA0E0AF
:1012B000E948844208D101210820FFF7D8FB00212A
:1012C0000820FFF7D4FB94E0E448844208D10121D0
:1012D0001020FFF7CCFB00211020FFF7C8FB88E0AF
:1012E000DF48844208D101212020FFF7C0FB002104
:1012F0002020FFF7BCFB7CE0DA48844208D10121C2
:101300004014FFF7A7FB00216014FFF7A3FB70E078
:10131000D548844209D10121C804FFF79BFB002175
:101320004FF40020FFF796FB63E0D048844209D1D8
:1013300001210805FFF78EFB00214FF48010FFF715
:1013400089FB56E0CA48844209D101214805FFF7CC
:1013500081FB00214FF40010FFF77CFB49E0C548FA
:10136000844208D101214020FFF781FB0021402069
:10137000FFF77DFB3DE0C048844208D10121802079
:10138000FFF775FB00218020FFF771FB31E0BB48C0
:10139000844208D101218015FFF769FB0021A015C7
:1013A000FFF765FB25E0B648844209D10121080416
:1013B000FFF750FB00214FF48030FFF74BFB18E0A4
:1013C000B048844209D101214804FFF743FB0021C2
:1013D0004FF40030FFF73EFB0BE0AB48844208D1EE
:1013E00001218804FFF736FB00214FF48020FFF72E
:1013F00031FB10BD00220288944B98420ED0994BCD
:1014000098420BD0B0F1804F08D0914B984205D054
:10141000904B984202D0904B984204D14FF68F7374
:101420001A404B881A438D4B984207D08C4B9842F8
:1014300004D04FF6FF431A40CB881A4302808B88B2
:1014400083850B880385814B98420BD0854B98424E
:1014500008D08B4B984205D08A4B984202D08A4BD9
:10146000984201D10B7A038601238382704770B5BD
:10147000002400220023058C4FF6FE7635400584BB
:10148000028C8388048B4FF68F752C40B51E2C4040
:101490000D882C43751E2A400D892A434D882A4306
:1014A0006A4DA8420BD06F4DA84208D0744DA84297
:1014B00005D0744DA84202D0734DA84213D14FF607
:1014C000F7752A404D892A434FF6FB752A408D88CF
:1014D0002A434FF6FF652B404FF6FF552B408D8971
:1014E0002B43CD892B4383800483CD88858602845A
:1014F00070BD70B5002400220023058C4FF6EF76F6
:1015000035400584028C8388048B48F6FF752C4097
:101510004FF6FF452C400D884FF6FF7606EA05256D
:101520002C434FF6DF752A400D8906EA05152A433C
:101530004D8806EA05152A43444DA84202D0494D7C
:10154000A8421DD14FF67F752A404D894FF6FF7690
:1015500006EA05152A434FF6BF752A408D8806EA2C
:1015600005152A434FF6FF352B404FF2FF752B40F0
:101570008D8906EA85052B43CD8906EA85052B432F
:1015800083800483CD880587028470BD70B50024F4
:1015900000220023058C4FF6FF6635400584028C3F
:1015A0008388848B4FF68F752C404FF6FC752C404A
:1015B0000D882C434FF6FF552A400D894FF6FF76D4
:1015C00006EA05252A434D8806EA05252A431F4DCC
:1015D000A84202D0234DA8421DD14FF2FF752A40E8
:1015E0004D894FF6FF7606EA05252A434FF6FF356B
:1015F0002A408D8806EA05252A434EF6FF752B40C2
:101600004DF6FF752B408D8906EA05152B43CD89D4
:1016100006EA05152B4383808483CD888587028461
:1016200070BD70B5002200230024058C4EF6FF76B5
:1016300035400584038C8488828B48F6FF752A40E8
:101640004FF6FF452A400D8820E00000002C0140A5
:101650000004004000080040000C00400010004062
:101660000014004000340140004C01400050014093
:101670000054014000180040001C004000200040C1
:101680000040014000440140004801404FF6FF7611
:1016900006EA05252A434DF6FF752B400D8906EA1B
:1016A00005352B434D8806EA05352B43FA4DA842F4
:1016B00002D0FA4DA84208D14BF6FF752C408D8917
:1016C0004FF6FF7606EA85152C4384808283CD8809
:1016D000A0F84050038470BD828B4FF2FF331A4054
:1016E0008283828B4FF6FF7303EA01231A438283BE
:1016F0007047F0B50C461546002200210026078CE5
:101700004EF6FF7C07EA0C070784828B018C4FF6AC
:10171000FF7707EA043640F6FF473A404FF6FF7777
:1017200007EA05273A434FF6FF7707EA03373A43BC
:10173000D94FB8420ED0D94FB8420BD0B0F1804F3C
:1017400008D0D74FB84205D0D64FB84202D0D64FB6
:10175000B84206D14DF6FF77394046F480573943F9
:1017600005E047F6FF57394044F4805739438283F8
:101770000184F0BD828B4FF6F3731A408283828B13
:101780000A4382837047F0B50C46154600220021BB
:101790000026078C4FF6FF6C07EA0C070784828B44
:1017A000018C4FF6FF7707EA04264FF60C773A4094
:1017B0004FF6FF7707EA03172F433A43B64FB84275
:1017C0000ED0B64FB8420BD0B0F1804F08D0B44F16
:1017D000B84205D0B34FB84202D0B34FB84206D199
:1017E0004FF6FF57394046F48077394305E04FF212
:1017F000FF57394044F48077394382830184F0BD38
:10180000028B4FF2FF331A400283028B4FF6FF73B5
:1018100003EA01231A4302837047F0B50C461546CC
:10182000002200210026078C4FF6EF7C07EA0C0708
:101830000784028B018C4FF6FF7707EA041640F607
:10184000FF473A404FF6FF7707EA03373A434FF630
:10185000FF7707EA05273A438F4FB8420ED08F4FE4
:10186000B8420BD0B0F1804F08D08D4FB84205D0B0
:101870008C4FB84202D08C4FB84206D14FF6DF777A
:10188000394046F01007394305E04FF65F7739409D
:1018900044F01007394302830184F0BD028B4FF6F8
:1018A000F3731A400283028B0A4302837047F0B538
:1018B0000C46154600220021068C4FF6FE773E406E
:1018C0000684028B018C4FF60C7632407E1C06EAB1
:1018D00003162E433243704EB0420ED06F4EB042CC
:1018E0000BD0B0F1804F08D06D4EB04205D06D4E98
:1018F000B04202D06C4EB04206D14FF6FD76314078
:1019000044F00106314305E04FF6F576314044F0EE
:101910000106314302830184F0BD70B505460C46D3
:101920005D4885420ED05D4885420BD0B5F1804FB1
:1019300008D05B48854205D05A48854202D05A48B3
:10194000854200D100E000BF208850B92389A288D9
:1019500061882846FFF7ABFFE1882846FFF79EFF26
:1019600025E0208804280AD12389A2886188284696
:10197000FFF753FFE1882846FFF742FF17E0208872
:1019800008280AD12389A28861882846FFF7FBFE30
:10199000E1882846FFF7EEFE09E02389A2886188E6
:1019A0002846FFF7A6FEE1882846FFF795FE70BDA2
:1019B0002DE9F04105460C4600260127608808B94C
:1019C000022600E00026A088012801D1022700E0BD
:1019D00001272088A0B92389A28861882846FFF7BB
:1019E00066FFE1882846FFF759FF23893A463146CA
:1019F0002846FFF712FFE1882846FFF701FF13E0B2
:101A00002389A28861882846FFF707FFE1882846D6
:101A1000FFF7F6FE23893A4631462846FFF747FF8F
:101A2000E1882846FFF73AFFBDE8F0810A884B8835
:101A30001A438B881A43CB881A430B891A434B8964
:101A40001A438B891A43A0F8442070474FF6FF7160
:101A5000818000210180C180418001727047002196
:101A6000018041808180C180018141818181C1816A
:101A70007047002101804180012181800021C180C7
:101A8000018170470021018041808180C1800181F6
:101A90004181818170470000002C014000340140E9
:101AA0000004004000080040000C004021B1028802
:101AB00042F00102028004E002884FF6FE731A40F1
:101AC0000280704731B1B0F8442042F40042A0F8DF
:101AD000442005E0B0F84420C2F30E02A0F84420F0
:101AE00070471AB183890B43838102E083898B435A
:101AF000838170478182704741EA0203A0F8483031
:101B000070471AB183890B43838102E083898B4339
:101B10008381704701894FF6F87211400181704747
:101B20000A46002101894FF68F7319401143018144
:101B3000704730B504460D4629462046FFF7F0FFB2
:101B4000208940F00700208130BD2DE9F041044696
:101B50000D4616461F46602D06D13B4601223146F2
:101B60002046FFF75AFE05E03B460122314620465B
:101B7000FFF79DFE29462046FFF7D2FF208940F05F
:101B800007002081BDE8F08130B50C4600210189B5
:101B9000C9B24FF6FF7505EA0325154325432943CE
:101BA000018130BD2DE9F04105460E4617469846A5
:101BB000002443463A4631462846FFF7E5FF2C8984
:101BC0004FF6F870044044F007044FF68F7004405D
:101BD00044F070042C81BDE8F081F0B504460D4658
:101BE00016461F463B46324629462046FFF7CCFFA5
:101BF000208940F480402081F0BD018582827047B9
:101C00000A46002101884FF68F7319401143018065
:101C10007047F0B50C4615461E46002100220023F1
:101C20000189028B038C4FF6F877394021434FF638
:101C3000FC473A4040F201173A434FF6DD773B400C
:101C40004FF6FF7707EA06172F433B4301810283D4
:101C50000384F0BD0A460021018B4FF68F731940B3
:101C60001143018370470A460021018B48F6FF7338
:101C700019404FF6FF7303EA0223194301837047AB
:101C80000A460021818B4FF68F73194011438183DF
:101C900070470A460021818B48F6FF7319404FF6C2
:101CA000FF7303EA022319438183704721B102883D
:101CB00042F08002028004E002884FF67F731A40EF
:101CC0000280704721B1828842F00402828004E0E1
:101CD00082884FF6FB731A408280704721B1828858
:101CE00042F00802828004E082884FF6F7731A40BF
:101CF0008280704721B1828842F00102828004E034
:101D000082884FF6FE731A40828070470A4600218F
:101D1000018B4FF6F77319401143018370470A4650
:101D20000021018B4FF2FF7319404FF6FF7303EA56
:101D300002231943018370470A460021818B4FF625
:101D4000F77319401143818370470A460021818B44
:101D50004FF2FF7319404FF6FF7303EA0223194352
:101D6000818370470A460021018B4FF6FB731940AF
:101D70001143018370470A460021018B4FF6FF3360
:101D800019404FF6FF7303EA02231943018370479A
:101D90000A460021818B4FF6FB7319401143818362
:101DA00070470A460021818B4FF6FF3319404FF6EA
:101DB000FF7303EA02231943818370470A46002117
:101DC000018B4FF67F7319401143018370470A4618
:101DD0000021018BC1F30E014FF6FF7303EA0223CA
:101DE0001943018370470A460021818B4FF67F73A8
:101DF00019401143818370470A460021818BC1F34A
:101E00000E014FF6FF7303EA0223194381837047E3
:101E10000A460021018C4FF6FD73194011430184DD
:101E200070470A460021018C4FF6F77319401143A1
:101E3000018470470A460021018C4FF6DF73194078
:101E40004FF6FF7303EA02131943018470470A46F1
:101E50000021018C4FF67F7319404FF6FF7303EAA0
:101E600002131943018470470A460021018C4FF682
:101E7000FF5319404FF6FF7303EA0223194301840D
:101E800070470A460021018C4FF2FF7319404FF64C
:101E9000FF7303EA02231943018470470A460021B5
:101EA000018C4DF6FF7319404FF6FF7303EA0233BE
:101EB00019430184704730B5002301248C40A3B23C
:101EC000048C9C430484048C02FA01F5ADB22C43CB
:101ED000048430BD30B5002304248C40A3B2048CAC
:101EE0009C430484048C02FA01F5ADB22C430484B3
:101EF00030BD70B503460020002418461830012577
:101F00008D40ACB21D8CA5431D8409B1082909D1AF
:101F100000EB6100056825F0700505600568154354
:101F200005600EE00D1FC5F34E052844056825F435
:101F3000E045056005684FF6FF7606EA0226354360
:101F4000056070BD21B1028842F00202028004E007
:101F500002884FF6FD731A400280704721B1028853
:101F600042F00402028004E002884FF6FB731A403C
:101F70000280704721B1828842F08002828004E0B2
:101F800082884FF67F731A408280704702884FF62E
:101F9000F7731A40028002880A43028070478288E1
:101FA0004FF68F731A40828082880A43828070477E
:101FB00002894FF6F8731A40028102890A430281AE
:101FC000704702894FF67F731A40028102890A43E3
:101FD0000281704781847047818570478186704790
:101FE0000187704781877047A0F8401070470288CA
:101FF0004FF6FF431A40028002880A43028070476E
:102000000146888E70470146088F70470146888FC9
:1020100070470146B1F8400070470146888C704710
:102020000146088D704702460020138A0B400BB111
:10203000012000E000207047CA430282704730B59B
:102040000246002000230024158A05EA0103958931
:1020500005EA010413B10CB1012000E0002030BDFD
:10206000CA4302827047014642F228324A434FF087
:10207000E0235A6101221A6100229A6100BF4FF0E9
:10208000E022106900F001021AB100F48032002A47
:10209000F5D000224FF0E0231A619A6170470000EA
:1020A00008B501210420FEF7BBFC4FF40060ADF839
:1020B000000002208DF8020010208DF80300694610
:1020C0006D48FEF771FD08BD10B54FF400616A4818
:1020D000FEF719FE10BD10B54FF400616648FEF71B
:1020E00010FE10BD0EB501210420FEF799FC012160
:1020F0000820FEF795FC01211020FEF791FC4FF41B
:102100008070ADF808004FF47040ADF80400801105
:10211000ADF8000002208DF80A008DF806008DF859
:10212000020010208DF80B008DF807008DF80300D9
:1021300002A95148FEF738FD01A95048FEF734FDC9
:1021400069464F48FEF730FD0EBD10B504460A2C17
:102150003AD2DFE804F039050B11171D22272D3381
:102160004FF480514548FEF7CEFD2DE04FF400516D
:102170004248FEF7C8FD27E04FF480413F48FEF794
:10218000C2FD21E04FF400413C48FEF7BCFD1BE0DE
:1021900040213B48FEF7B7FD16E080213848FEF7A6
:1021A000B2FD11E04FF480713548FEF7ACFD0BE055
:1021B0004FF400713248FEF7A6FD05E04FF4807140
:1021C0002D48FEF7A0FD00BF00BF10BD10B50446AE
:1021D0000A2C3AD2DFE804F039050B11171D22272B
:1021E0002D334FF480512548FEF78BFD2DE04FF441
:1021F00000512248FEF785FD27E04FF480411F483B
:10220000FEF77FFD21E04FF400411C48FEF779FD09
:102210001BE040211A48FEF774FD16E080211848A3
:10222000FEF76FFD11E04FF480711548FEF769FD70
:102230000BE04FF400711248FEF763FD05E04FF428
:1022400080710D48FEF75DFD00BF00BF10BD10B5E9
:10225000012403E02046FFF778FF641C092CF9DD18
:1022600010BD10B5012403E02046FFF7AFFF641C4A
:10227000092CF9DD10BD000000080140000C0140F0
:102280000010014030B589B005460C4601210220FE
:10229000FEF7D3FB01210520FEF7C2FBC020ADF8FD
:1022A000200018208DF8230003208DF8220008A9B3
:1022B0006A48FEF779FCADF81850ADF814400020DC
:1022C000ADF81A00ADF816008DF81C0005A9644899
:1022D000FFF790F87020ADF804000120ADF806007B
:1022E0000020ADF808000220ADF80C000020ADF889
:1022F0000E004FF48070ADF810000020ADF8120011
:1023000001A95748FFF7B3F801A95548FFF7F1F8BD
:1023100008215348FFF7FAFC08215148FFF7FFFC5A
:1023200001214F48FFF7C2FB09B030BD30B589B07D
:1023300005460C4601210846FEF77FFB01210520DA
:10234000FEF76EFB0F20ADF8200018208DF823005B
:1023500003208DF8220008A94048FEF725FCADF8BF
:102360001850ADF814400020ADF81A00ADF8160072
:102370008DF81C0005A94FF08040FFF73BF8702056
:10238000ADF804000120ADF806000020ADF808000B
:102390000220ADF80C000020ADF80E004FF4807064
:1023A000ADF810000020ADF8120001A94FF08040F8
:1023B000FFF75DF801A94FF08040FFF79AF801A9F7
:1023C0004FF08040FFF7E2F801A94FF08040FFF79F
:1023D00028F90821C806FFF799FC0821C806FFF76D
:1023E0009EFC0821C806FFF7A7FC0821C806FFF7D6
:1023F000ACFC01218807FFF759FB09B030BD10B5CF
:10240000044621464FF08040FFF7E8FD10BD10B5AF
:10241000044621464FF08040FFF7E2FD10BD10B5A5
:10242000044621464FF08040FFF7DCFD10BD10B59B
:10243000044621464FF08040FFF7D6FD10BD10B591
:10244000044621460648FFF7C9FD10BD10B50446F5
:1024500021460348FFF7C4FD10BD000000080140FD
:10246000000400400246501A70470246505C312872
:1024700001D101207047505C322801D10220F9E7D8
:10248000505C332801D10320F4E7505C342801D19B
:102490000420EFE7505C352801D10520EAE7505CC5
:1024A000362801D10620E5E7505C372801D1072006
:1024B000E0E7505C382801D10820DBE7505C392880
:1024C00001D10920D6E70020D4E770B504460B46B9
:1024D00000BF19462046FFF7C8FF642100FB01F644
:1024E000591C2046FFF7C1FF0A2101FB0066991C19
:1024F0002046FFF7BAFF3518284670BD70B506466E
:10250000002400255CE029463046FFF7DEFF7049D5
:1025100051F82410884206D129463046FFF7D5FFEE
:102520006B4941F824006A4800685A2803D1022008
:10253000FFF70BFE02E00220FFF748FE644850F868
:1025400024004FF4B47101EBC000624941F824004B
:10255000E91C3046FFF7B9FF5F4941F824000846FF
:1025600000685F2803D10320FFF7EFFD02E003209E
:10257000FFF72CFE584850F824004FF4B47101EBDB
:10258000C000564941F824000A4652F82410514A26
:1025900052F82400FFF766FF514941F8240051F832
:1025A0002400C11700EB5171C9104E4A42F82410A3
:1025B000494850F82400464941F82400641CAD1DE8
:1025C000242DA0DB70BD10B50446A0B2FFF73EFF7E
:1025D00010BD10B50446A0B2FFF731FF10BD10B515
:1025E0000446A0B2FFF723FF10BD10B50446A0B209
:1025F000FFF715FF10BD10B50446A0B2FFF707FFA7
:1026000010BD10B50446A0B2FFF7F9FE10BD10B51D
:10261000012457E02F490968324A12688818FFF7E9
:10262000F0FF2C4949682F4A52688818FFF7E3FFEA
:10263000284989682B4A92688818FFF7D6FF2549F0
:10264000C968284AD2688818FFF7C9FF2149096973
:10265000244A12698818FFF7BCFF1E494969214ABC
:1026600052698818FFF7AFFF1A4800681D490968CA
:10267000084418490860084640681A4949680844EF
:102680001449486008468068164989680844114919
:1026900088600846C0681349C96808440D49C86085
:1026A000084600690F49096908440A490861084653
:1026B00040690C4949690844064948616420FFF7AC
:1026C000D2FC641C082CA5DD10BD074A03C270476C
:1026D000B4000020CC000020E4000020FC0000201A
:1026E000140100202C0100202800002008B5012141
:1026F0000520FEF795F901218803FEF791F91820CE
:102700008DF803004FF40070ADF8000003208DF841
:10271000020069462E48FEF747FA04208DF80300B0
:102720000002ADF8000069462948FEF73DFA08BDF1
:102730001FB54FF4E13000900020ADF80400ADF873
:102740000600ADF80800ADF80C000C20ADF80A004A
:1027500069462048FEF7B9FB01211E48FEF741FCFF
:102760001FBD10B58CB0044601210846FEF74BF999
:102770001848001D0190029400200390242004902A
:1027800000200590802006900020079008902020CF
:10279000099000020A9000200B9001A90E48FDF755
:1027A00049FF0CB010BD012240210A48FEF74AFC47
:1027B00001210948FDF769FF08E04FF40030FDF7FB
:1027C0007FFF18B14FF40030FDF78EFFF5E70000F2
:1027D0000008014000380140580002400246002035
:1027E00005E011F8013B02F8013B431CD8B20B781D
:1027F000002BF6D1137070472DE9F04105460E46C7
:102800001446002714B90020BDE8F0811DB904204A
:1028100020700020F8E71EB90C2020700020F3E79C
:10282000FE480078002803DD112020700020EBE72F
:102830002878012808D0022807D0032802D00428CD
:1028400004D100E000BF00BF00BF03E00120207002
:102850000020D9E700BF03F035FA074605F10F0164
:102860003046FFF7BBFF8046384603F02FFA0020C2
:1028700020704046C8E70146002002E0491C421C87
:10288000D0B20A78002AF9D170472DE9F041054607
:102890000E4614464FF000080CB9BDE8F08115B99A
:1028A00004202070F9E716B90C202070F5E7DB480A
:1028B0000078002802DD12202070EEE72878012839
:1028C00008D0022807D0032802D0042804D100E051
:1028D00000BF00BF00BF02E001202070DDE700BFA5
:1028E00003F0F0F980463046FFF7C5FF07460F2F8B
:1028F00005DD404603F0EAF90B202070CDE73146B4
:1029000005F10F00FFF76AFF404603F0DFF90020F2
:10291000207000BFC1E7F0B5024612F8344F957839
:102920005678343A0B4618680FE000F10B073F5D0C
:10293000B74300F10B0C0CF8047067463F5D17B904
:10294000877AAF4387721B1D18680028EDD1F0BD50
:10295000B349B44A1278885CB349095CB04A515C07
:1029600001EBC001B14A1170704710B5002403F0AB
:10297000A9F90446A9480078F0B9AD480078D8B95B
:10298000FFF7E6FFA9480078AA490978884213D0E2
:10299000A948A649097850F82100A84908600846C6
:1029A0000068806B401C09688863A5480068401C6B
:1029B000A349086003F09DF9204603F087F910BD94
:1029C00070B5014600249F4D2D68EC619D4C246834
:1029D00021620B4618681BE09A4C246894F8345026
:1029E00000F10B04645D974D2D6895F835502C432C
:1029F000944D2D6895F8346000F10B05AC55847A40
:102A0000904D2D6895F836502C4384721B1D186824
:102A10000028E1D18B4C246894F83420824CA45CCB
:102A2000884D2D6895F83550AC437F4DAC542C46FD
:102A3000A45C44B9834C246894F83650794C2478CB
:102A4000AC43784D2C7070BD2DE9FF4F83B08146AB
:102A50000E461546109F0020009017B907B0BDE83C
:102A6000F08FB9F1000F03D1042038700020F5E792
:102A70001EB9042038700020F0E71DB9042038701A
:102A80000020EBE700203060CA46DAF8004015E08D
:102A90002078062807D2DFE800F0060405030708BF
:102AA00007E006E005E000BF00BF0120387000200D
:102AB000D4E700BF0AF1040ADAF80040002CE7D19D
:102AC00056480078002803DD022038700020C5E752
:102AD00057480078002803DD0D2038700020BDE73E
:102AE00003F0F0F800900020029083460190CA465F
:102AF000DAF8004068E02078062855D2DFE800F0D8
:102B000054182B035556208900280CDD2089401EBF
:102B1000208110C601200290002001C50BF10100A8
:102B20001FFA80FB03E0019840F00100019046E0AD
:102B3000606858B1606801C50020606010C601205F
:102B400002900BF101001FFA80FB03E0019840F0B6
:102B50000200019033E0D4F80480B8F81600002891
:102B60001DDDD8F81010081DC8F81000086801C550
:102B7000D8F80810D8F81000884203D1D8F804001B
:102B8000C8F81000B8F81600401EA8F8160010C6C5
:102B9000012002900BF101001FFA80FB03E0019875
:102BA00040F0040001900AE000BF00BF009803F06D
:102BB0008DF8002030600120387058464EE700BF85
:102BC0000AF1040ADAF80040002C94D10298012896
:102BD00008D100203060009803F078F800203870A9
:102BE00058463BE71748006890F83000019941F0DB
:102BF000800108431349096881F830000020114919
:102C0000096881F831000F4906980968C885484667
:102C1000FFF7D6FE009803F059F815E049000020B0
:102C20002A6000084D0000204E0000204C000020CB
:102C30004A0000204B000020100700206000002008
:102C40003000002058000020FFF78FFE03F03AF814
:102C50000090FA48006890F8310020B101281BD09C
:102C6000022818D100E000BFF4480068C4693CB1F4
:102C700010C6002030600BF101001FFA80FB09E054
:102C80000120EE49096881F831004946EB480068A7
:102C9000FFF741FE06E000BF4946E8480068FFF73D
:102CA0003AFE00BF00BFE548006890F8310020B14F
:102CB000012828D0022825D11FE0207806280DD22F
:102CC000DFE800F00C0607030D0E002001C510E040
:102CD00000BFDA480068406A01C50AE000BF00BFD3
:102CE000009802F0F3FF0020306001203870584651
:102CF000B4E600BF002038700AE0002001C50E20B5
:102D0000387005E000BF002001C50A20387000BF00
:102D100000BF0020C949096881F83000C749096827
:102D200081F83100C5490968C861C4490968086269
:102D3000C24909684862009802F0C8FF58468DE60B
:102D40007CB5002514E06946284602F034FA0646B0
:102D500066B9BB4850F8254044B1012C06D0D4E9EF
:102D6000020100EB810060640198A064681CC5B298
:102D70001F2DE8DD7CBD002402E0C82002F0FEFA31
:102D8000B04800780028F8D0AF4800686421B0FB54
:102D9000F1F0AD4908600846006828B90020AB4949
:102DA0000870FF2002F052FA00BF02F08BFF0446C9
:102DB000A7480068A74908600020A5490860204688
:102DC00002F084FFA34800689F490968B0FBF1F056
:102DD000C0F164009D49087002F0DFFFFFF7B0FF0B
:102DE000642002F0CBFAE0E700B587B003200021B1
:102DF0008022994BCDE90132CDE903104FF6FE70E8
:102E00001E23964A0090AFF2910001F0A0FF06AA9F
:102E100093A11E2002F02EF907B000BD002400BFD0
:102E200002F050FF04468A480068401C8849086048
:102E3000204602F04BFF02F0ABFFF1E700B587B090
:102E40000320002180228A4BCDE90132CDE9031015
:102E50004FF6FF701F23874A0090AFF23F0001F04A
:102E600076FF06AA84A11F2002F004F907B000BD76
:102E700004E0002200F8012B4A1E91B20029F8DC80
:102E8000704730B54FF4A0717F48FFF7F1FF7E4BDC
:102E900003F1200500240AE0002018705D603F2047
:102EA000D8730021197420332035601C84B2092C9A
:102EB000F2DB0020187058603F20D873002119748D
:102EC00071487249086030BD30B54FF4CF61704829
:102ED000FFF7CEFF80215A48FFF7CAFF6C4B03F182
:102EE0005C0500240AE05D613F2083F84C0000216E
:102EF0004D20C1545C335C35601CC4B2112CF2D33C
:102F0000002058613F2083F84C0000214D20C1541F
:102F10000020604908605E485F49086030BD0022BB
:102F20005E4B1A705E49002004E0002201F8012B7C
:102F3000421CD0B20428F8DB00225A4B1A705A4BBC
:102F40001A705A4B1A603D4B1A607047002058495E
:102F5000086058490870584908705849087058491D
:102F60000870584908603A4908603A49086036498B
:102F7000086034490870704710B502F0F5FEFFF79D
:102F8000E5FFFFF7CCFFFFF79FFFFFF77AFF00F0A9
:102F900008FF01F04AF801F08AFBFFF74FFFFFF747
:102FA00023FF02F011FE02F0E3FE02F07BFF10BDF2
:102FB00043480078012808D13E480078FF2804D211
:102FC0003C480078401C3B490870704710B500240D
:102FD0003B480078012830D102F074FE04463548A1
:102FE0000078002804DD33480078401E314908701D
:102FF00030480078F0B930480078D8B9FFF7A8FC1D
:103000002948007827490978884213D00C48264976
:10301000097850F821002549086008460068806B4F
:10302000401C0968886327480068401C25490860DF
:1030300002F064FE204602F049FE10BD5800002058
:103040001007002048000020400000203C00002025
:103050005400002044000020100300200C05002034
:1030600075432F4F532D494920537461740000005C
:10307000100500200C07002075432F4F532D4949A0
:103080002049646C650000004401002034000020E9
:1030900090070020640000205C0000204D0000200C
:1030A0004E0000204B0000204C000020600000205B
:1030B00074000020490000204A0000205300002036
:1030C000520000203000002010B50024FD48007898
:1030D000012811D102F0F6FD0446FB48007840B902
:1030E000FA480078FF2804D2F8480078401CF749D5
:1030F0000870204602F0EAFD10BD10B50024F1482A
:103100000078012822D102F0DDFD0446EF48007866
:10311000002818DDED480078401EEC49087008468C
:10312000007860B9E848007828B9204602F0CEFD62
:10313000FFF71BFC0AE0204602F0C8FD06E020462F
:1031400002F0C4FD02E0204602F0C0FD10BD10B543
:10315000DC48007890B9FFF7FBFBDD480078DD49DB
:103160000870DD48DA49097850F82100DB49086029
:1031700008460068DA49086002F0ABFD10BD10B5E2
:103180000024022002F0FAF802F09CFD0446002020
:10319000D4490860204602F099FD642002F0EEF860
:1031A00002F090FD0446CF480068CF490860012036
:1031B000CE490870204602F089FD10BD70B500268A
:1031C00002F049FE02F07EFD0646C9480068401C38
:1031D000C7490860304602F079FDBA4800780128F6
:1031E00053D1C448007820B1012804D0022809D165
:1031F00003E001250BE0002509E001250120BD4980
:10320000087004E001250020BA49087000BF00BF23
:1032100005B970BDB848046833E002F053FD0646B6
:10322000E08D50B3E08D401E80B2E08528BB94F85D
:10323000300000F0370040B114F8300F20F03700B4
:10324000207001206070303C02E0002084F83100E2
:1032500094F8300000F0080078B93434A078A74919
:1032600009780843A54908702078A549085C617869
:10327000084314F83419A24A50546469304602F0E5
:1032800025FD94F832001F28C7D100BFC1E74FF4D5
:103290008F707047704710B590F8342001F10B0320
:1032A0009B5C90F83540A34301F10B04A3542346E3
:1032B0009B5C23B98B7A90F83640A3438B7210BD88
:1032C0002DE9F04F05460F4690469946A87A8D495C
:1032D0000E5C05F10B00805D11F800B00BEBC60031
:1032E00000F0FF0A7C4850F82A4000202434608116
:1032F0002760207B20EA0800207384F80D90207B53
:10330000243C00F0080068B994F836007B4909783D
:1033100008437A4908707A48805D94F8351008436C
:103320007749885529462046FFF7B5FF206A20B126
:103330002046216AFFF7EFFAE5615046BDE8F08FBD
:1033400010B5674A1268D061654A126892F8343045
:1033500000F10B02D25C624B1B6893F835301A43C4
:103360005F4B1B6893F8344000F10B031A55827AC7
:103370005B4B1B6893F836301A438272584A1268C6
:1033800092F834105E4A525C554B1B6893F8353006
:103390009A435B4B5A541A46525C42B9504A1268DF
:1033A00092F83630554A12789A43544B1A7010BD31
:1033B0000023837200F10B01002204E0002301F8D6
:1033C000013B531CDAB2042AF8DB704705E011F820
:1033D000013B00F8013B531E9AB2002AF7DC70470C
:1033E0002DE9F84F05460E4617469846DDE90BAB2A
:1033F000DDF828900020009002F064FC0090424824
:103400000468002C5DD0183454F8040C3E49086060
:10341000009802F05BFC44F8186CA576002020763A
:103420006076E08244F814AC44F80C9C44F8107CBC
:1034300024F808BC24F8068CE077E810207705F023
:103440000700E076217F01208840A077E17E0120FF
:103450008840607700206060A0602061E0602062AA
:10346000A0626062E06220633F2084F83400183C70
:1034700000214D200155204602F0E6FC204602F0D6
:1034800079FC02F01FFC0090134840F825401A48D0
:10349000006860610020A0611748006810B11648FC
:1034A00000688461144804603434A07813490978B2
:1034B00008431249087020781149085C6178084374
:1034C00024E032E052000020490000204A000020A1
:1034D0004C0000204B00002010070020600000205E
:1034E0005800002054000020400000204800002028
:1034F0007400002068000020640000204D000020BF
:103500004E0000202A6000085C00002014F83419E6
:10351000084A505408480078401C07490870009831
:1035200002F0D4FB0020BDE8F88F009802F0CEFB3B
:103530004220F8E74E000020530000202DE9F05F04
:1035400004460F4691461E464FF0000B16B9002068
:10355000BDE8F09F1CB96E2030700020F8E720789D
:10356000052803D0012030700020F1E709F0800A1F
:10357000BAF1000F04D029F080094FF0010801E0F2
:103580004FF000080020307002F09CFB8346B9F138
:10359000000F2CD0B9F1010F3BD0B9F1020F03D0CD
:1035A000B9F1030F46D111E0208900EA0705BD42B9
:1035B00006D1B8F1010F05D12089A843208101E08F
:1035C00070203070584602F081FB3AE0208900EA12
:1035D000070535B1B8F1010F05D12089A843208135
:1035E00001E070203070584602F070FB29E020891D
:1035F00027EA0005BD4206D1B8F1010F05D12089A7
:103600002843208101E070203070584602F05EFBB4
:1036100017E0208927EA000535B1B8F1010F05D17F
:1036200020892843208101E070203070584602F044
:103630004DFB06E0584602F049FB00256F20307034
:1036400000BF00BF284683E72DE9F04106460D463E
:10365000002715B90020BDE8F081FA48007800285D
:1036600003DD102028700020F5E702F02BFB074651
:10367000F548046894B100684068F3490860052083
:1036800020702681002060603F20A0720021E1723E
:10369000384602F01BFB0020287004E0384602F098
:1036A00015FB722028702046D5E730B501464A68E0
:1036B00008682AB9CC68606028B10025456002E03E
:1036C000106000B142608B6800259D6230BDF0B58E
:1036D00006460F46B46800202C346080278020798D
:1036E00020F0200020710020607120792C3C88B9E6
:1036F0003434A078D54909780843D4490870207833
:10370000D349085C6178084314F83419D04A5054FE
:10371000012500E000253046FFF7C7FF2846F0BD31
:103720002DE9F0470446894615464FF0000A15B9C1
:103730002046BDE8F0871CB96E2028702046F8E7C7
:10374000C0480078002803DD0F2028702046F0E7ED
:103750002078052803D0012028702046E9E702F0F0
:10376000B1FA8246606808B1012700E00027B9F18C
:10377000000F03D0B9F1010F40D11BE09FB93F20EA
:10378000A0720021E17200202070AF4800686060E4
:1037900000202081AC480460504602F097FA0020D7
:1037A0002870002605E0504602F090FA4920287063
:1037B00026462AE0D4F8048005E000214046FFF7C1
:1037C00086FFD8F80080B8F1000FF6D13F20A07234
:1037D0000021E172002020709B480068606000209A
:1037E000208199480460504602F070FA012F01D1FF
:1037F000FFF7BBF800202870002606E0504602F0D4
:1038000065FA07202870264600BF00BF304690E7C3
:103810002DE9F04105460E461446002714B9002054
:10382000BDE8F0811DB96E2020700020F8E71EB9B8
:103830000C2020700020F3E782480078002803DD88
:10384000112020700020EBE702F03CFA07462878B0
:10385000052806D0384602F039FA012020700020F1
:10386000DEE705F10A013046FEF7B8FF804638462C
:1038700002F02CFA002020704046D1E72DE9F041FB
:1038800005460E4614464FF000080CB9BDE8F0811D
:1038900015B96E202070F9E716B90C202070F5E7F5
:1038A00068480078002802DD12202070EEE702F060
:1038B00009FA80462878052805D0404602F006FA25
:1038C00001202070E2E73046FEF7D5FF07460F2FB4
:1038D00005DD404602F0FAF973202070D6E7314644
:1038E00005F10A00FEF77AFF404602F0EFF90020EA
:1038F000207000BFCAE7F0B51446059E554F3F68DB
:1039000097F8307047F02007DFF848C1DCF800C0B6
:103910008CF830700027DFF83CC1DCF800C08CF870
:1039200031704C4F3F68FE854A4F3F68B9620C8248
:103930008B74484F3F688F6047680F6000274F6067
:10394000C860456805B169604160424F3F6897F8BB
:1039500034203F4FBF5CDFF8FCC0DCF800C09CF8AF
:1039600035C027EA0C07DFF8E8C00CF8027067469C
:10397000BF5C5FB9374F3F6897F836C0334F3F7829
:1039800027EA0C07DFF8C4C08CF80070F0BD2DE901
:10399000F04F89B005460F4691469A46129E002088
:1039A000029016B909B0BDE8F08F1DB96E203070D5
:1039B0000020F7E723480078002803DD022030705C
:1039C0000020EFE724480078002803DD0D20307048
:1039D0000020E7E72878052803D001203070002078
:1039E000E0E709F0800BBBF1000F04D029F080095B
:1039F0004FF0010801E04FF0000802F063F9029077
:103A0000B9F1000F56D0B9F1010F76D0B9F1020F1C
:103A100003D0B9F1030F6FD12CE0288900EA070425
:103A2000BC421BD1B8F1010F02D12889A0432881E3
:103A3000084800688485029802F048F90020307038
:103A40002046AFE749000020380000204D0000204C
:103A50004E000020580000204A0000204B463A4605
:103A600004A92846CDF800A0FFF745FF029802F010
:103A70002DF96AE0288900EA07047CB1B8F1010F4A
:103A800002D12889A0432881D748006884850298FC
:103A900002F01CF900203070204683E74B463A467E
:103AA00004A92846CDF800A0FFF725FF029802F0F0
:103AB0000DF94AE0288927EA0004BC420FD1B8F189
:103AC000010F02D1288920432881C74800688485D6
:103AD000029802F0FBF800203070204662E74B4667
:103AE0003A4604A92846CDF800A0FFF704FF029843
:103AF00002F0ECF829E000E01FE0288927EA000442
:103B00007CB1B8F1010F02D1288920432881B64841
:103B100000688485029802F0D9F8002030702046B1
:103B200040E74B463A4604A92846CDF800A0FFF7E7
:103B3000E2FE029802F0CAF807E0029802F0C6F826
:103B400000246F20307020462CE700BFFEF70DFFE9
:103B500002F0B8F80290A448006890F8310020B351
:103B6000A148006890F83100039000209E49096840
:103B700081F8310004A8FFF798FD00209A490968F0
:103B800081F83000029802F0A1F80024039801287F
:103B900005D0022802D10E20307003E000BF0A20B9
:103BA000307000BF00BF2046FCE68F480068848D5F
:103BB000B8F1010F1ED1B9F1000F0ED0B9F1010F0C
:103BC0000CD0B9F1020F03D0B9F1030F0AD100E014
:103BD00000BF2889A04328810BE000BF288920432B
:103BE000288106E0029802F071F86F203070002002
:103BF000D8E600BF029802F069F800203070204635
:103C0000D0E670B5002502F05DF8054676480068FC
:103C1000848D284602F05AF8204670BD2DE9FC5FDD
:103C20000446894692461E46002000900EB9BDE823
:103C3000FC9F1CB96E2030700020F8E72078052822
:103C400003D0012030700020F1E702F03BF8009033
:103C5000BAF1000F03D0BAF1010F0AD104E02089B4
:103C600020EA090020810BE0208940EA0900208138
:103C700006E0009802F02AF8712030700020D6E7A4
:103C800000BF4FF0000B656855E0A87C40B30128E9
:103C900038D0022802D0032844D111E02089298A93
:103CA00000EA0107288AB84209D139462846FFF7B9
:103CB0000EFD8046B8F1010F01D14FF0010B38E045
:103CC0002089298A00EA01074FB139462846FFF7C3
:103CD000FEFC8046B8F1010F01D14FF0010B28E046
:103CE000288A218920EA0107288AB84209D1394661
:103CF0002846FFF7ECFC8046B8F1010F01D14FF0E8
:103D0000010B16E0288A218920EA01074FB13946C4
:103D10002846FFF7DCFC8046B8F1010F01D14FF0D7
:103D2000010B06E0009801F0D1FF6F2030700020F9
:103D30007DE700BF2D68002DA7D1009801F0C6FFD8
:103D4000BBF1010F01D1FEF710FE01F0BBFF0090A7
:103D500020890190009801F0B9FF0020307001988F
:103D600065E72DE9F04105460C46002714B900200F
:103D7000BDE8F0811DB96E2020700020F8E728789A
:103D8000052803D0012020700020F1E701F09AFF00
:103D900007462E89384601F099FF002020703046F2
:103DA000E6E770B58C211148FFF762F80F4C04F17B
:103DB0001C0600250AE00020207066603F20A072EB
:103DC0000021E1721C341C36681C85B2042DF2DB24
:103DD0000020207060603F20A0720021E172034843
:103DE0000349086070BD00005800002084020020D4
:103DF000380000202DE9F84F06460F4690461C4635
:103E0000002000900CB9BDE8F88F1EB96220207028
:103E10000020F8E706F0030018B1622020700020AF
:103E2000F1E7022F03D25B2020700020EBE7B8F10E
:103E3000040F03D25C2020700020E4E701F042FF71
:103E400000908B480568006820B189480068406888
:103E500087490860009801F039FF1DB95A20207089
:103E60000020D0E7B14606EB080A4FF0000B05E052
:103E7000C9F800A0D146C2440BF1010B781E584589
:103E8000F6D80020C9F800002E606E602F61EF6048
:103E9000C5F8088020702846B5E72DE9F0410446B2
:103EA0000D46002715B90020BDE8F0811CB960203F
:103EB00028700020F8E701F005FF0746206960B18F
:103EC0006668306860602069401E2061384601F0F5
:103ED000FDFE002028703046E6E7384601F0F6FE89
:103EE0005D2028700020DFE72DE9F04105460E46F1
:103EF0001446002714B90020BDE8F0811DB96020E8
:103F000020700020F8E71EB90C2020700020F3E795
:103F100058480078002803DD112020700020EBE7CE
:103F200001F0D0FE074605F114013046FEF756FCBD
:103F30008046384601F0CAFE002020704046DBE78C
:103F40002DE9F04105460E4614464FF000080CB925
:103F5000BDE8F08115B960202070F9E716B90C2092
:103F60002070F5E743480078002802DD1220207019
:103F7000EEE701F0A7FE80463046FEF77CFC0746E0
:103F80000F2F05DD404601F0A1FE63202070DFE722
:103F9000314605F11400FEF721FC404601F096FE83
:103FA0000020207000BFD3E770B504460D46002600
:103FB0000CB9602070BD0DB95F20FBE701F082FEF7
:103FC0000646D4E90310884204D3304601F07EFE51
:103FD0005E20EFE76068286065602069401C206112
:103FE000304601F073FE0020E4E770B505460C464C
:103FF00000260DB9602070BD0CB96120FBE701F00F
:1040000061FE06462868206068686060A868A06055
:10401000E868E06028692061304601F057FED4E985
:104020000301401A60610020E5E770B5B421124831
:10403000FEF71EFF104C00250DE0681C00EBC000D1
:104040000D4901EB800060603F2020750021617503
:104050002434681C85B2042DEFDB002060603F2013
:1040600020750021617504480149086070BD000099
:104070006C00002049000020080E00202DE9F041CE
:1040800006460D464FF0000815B90020BDE8F08146
:104090001EB9042028700020F8E73078022803D0E9
:1040A000012028700020F1E701F00CFE80467468C2
:1040B000E08A00280FDD2169081D20610F68E08A71
:1040C000401EE082A1682069884201D160682061B9
:1040D0000020287002E01F2028700027404601F0D1
:1040E000F5FD3846D2E72DE9F04106460F464FF080
:1040F0000008F7480078002802DD0020BDE8F081C4
:1041000001F0E0FD8046F3480468006820B1F14802
:1041100000684068EF490860404601F0D7FD0CB3E5
:1041200001F0D0FD8046EC480568E5B10068006804
:10413000E9490860404601F0C9FD6E6006EB870062
:10414000A860EE602E61AF820020E882022020701D
:104150000020208165603F20E0730021217420460B
:10416000FFF726F908E0DB4800686060D948046082
:10417000404601F0ABFD00242046BFE72DE9F047A3
:104180000446894615464FF0000A15B92046BDE899
:10419000F0871CB9042028702046F8E72078022810
:1041A00003D0012028702046F1E7C9480078002894
:1041B00003DD0F2028702046E9E701F083FD8246E9
:1041C000A07A10B14FF0010801E04FF00008B9F1FA
:1041D000000F03D0B9F1010F4DD123E0B8F1000F6A
:1041E00019D13F20E073002121746668BA48006845
:1041F0003060B948066000202070B64800686060F2
:1042000000202081B3480460504601F05FFD00208B
:104210002870002705E0504601F058FD492028701D
:1042200027462FE005E00023042219462046FFF729
:1042300047F8A07A0028F6D13F20E07300212174CE
:104240006668A54800683060A348066000202070BA
:10425000A04800686060002020819E4804605046AD
:1042600001F034FDB8F1010F01D1FEF77EFB002013
:104270002870002706E0504601F028FD072028702E
:10428000274600BF00BF384681E770B505460026C7
:104290000DB9042070BD2878022801D00120F9E76B
:1042A00001F010FD06466C686068E060606820619F
:1042B0000020E082304601F009FD0020EAE72DE908
:1042C000F0470646884615464FF0000915B900200C
:1042D000BDE8F0871EB9042028700020F8E7307888
:1042E000022803D0012028700020F1E778480078E8
:1042F000002803DD022028700020E9E777480078D5
:10430000002803DD0D2028700020E1E701F0DAFC31
:1043100081467468E08A002813DD2169081D206148
:104320000F68E08A401EE082A1682069884201D1BE
:1043300060682061484601F0C9FC002028703846BA
:10434000C6E76748006890F8300040F00400644910
:10435000096881F8300000206149096881F831005E
:104360005F480068A0F82E803046FEF7E9FF484617
:1043700001F0ACFCFEF7F9FA01F0A4FC81465848C4
:10438000006890F8310020B101280DD002280AD130
:1043900005E053480068476A002028700DE00027B8
:1043A0000E20287009E000BF31464D480068FEF736
:1043B00072FF00270A20287000BF00BF0020484974
:1043C000096881F830004649096881F8310044499C
:1043D0000968C86142490968086241490968486238
:1043E000484601F073FC384672E72DE9F041054676
:1043F0000F4614464FF0000814B90020BDE8F081C4
:104400001DB9042020700020F8E72878022803D086
:10441000012020700020F1E701F054FC8046A87ACA
:1044200020B300267FB1012F0CD107E00223042224
:1044300000212846FEF744FF701CC6B2A87A002867
:10444000F4D109E000BF0223042200212846FEF730
:1044500037FF701CC6B200BF00BF404601F036FCFB
:10446000FEF783FA0E2020703046C7E7404601F081
:104470002DFC0020207000BFC0E72DE9F04105466B
:104480000E46002715B90420BDE8F08128780228DF
:1044900001D00120F8E701F015FC0746A87A60B1C9
:1044A0000023042231462846FEF70AFF384601F071
:1044B0000DFCFEF75AFA0020E6E76C68E08AA18A54
:1044C00088420FDB384601F001FC1E20DCE70000CB
:1044D0004900002034000020700000204A00002025
:1044E00058000020E168081DE0600E60E08A401C72
:1044F000E082D4E90210884201D16068E060384669
:1045000001F0E4FB0020BFE72DE9F04105460E462F
:10451000002715B90420BDE8F0812878022801D0D1
:104520000120F8E701F0CEFB0746A87A60B100232E
:10453000042231462846FEF7C3FE384601F0C6FB8A
:10454000FEF713FA0020E6E76C68E08AA18A884249
:1045500004DB384601F0BAFB1E20DCE76168206905
:10456000884201D1A06820612069001F2061206974
:104570000660E08A401CE082384601F0A7FB00207C
:10458000C9E72DE9F04105460F4616464FF00008F1
:1045900015B90420BDE8F0812878022801D0012057
:1045A000F8E701F08FFB8046A87AE8B106F0010039
:1045B00050B105E00023042239462846FEF780FE6C
:1045C000A87A0028F6D105E00023042239462846BF
:1045D000FEF776FE404601F079FB06F0040008B9CC
:1045E000FEF7C3F90020D5E76C68E08AA18A88420B
:1045F00004DB404601F06AFB1E20CBE706F0020018
:1046000058B161682069884201D1A06820612069A1
:10461000001F20612069076009E0E168081DE06073
:104620000F60D4E90210884201D16068E060E08A3E
:10463000401CE082404601F049FB0020AAE72DE93A
:10464000F04705460C464FF0000A15B90420BDE8B6
:10465000F0870CB90920FAE72878022801D0012058
:10466000F5E701F02FFB8246A87A207305F10B08CD
:1046700004F10809002705E018F8010B09F8010BFF
:10468000781CC7B2042FF7DB6E68F08A002803DDC0
:1046900030690068206001E000202060F08AA0807E
:1046A000B08AE080504601F011FB0020CFE770B5E2
:1046B00060210A48FEF7DCFB084C04F118060025CF
:1046C00004E0266018341836681C85B2032DF8DB28
:1046D0000020206001480249086070BDBC0E002027
:1046E0007000002070B5044600260CB9002070BD93
:1046F0002078032801D00020F9E701F0E3FA06460C
:104700002589002D02DD2089401E2081304601F0E0
:10471000DDFA2846EBE770B505460026F14800783B
:10472000002801DD002070BD01F0CCFA0646EE48FD
:104730000468006820B1EC4800684068EA490860F5
:10474000304601F0C3FA5CB10320207025810020BF
:1047500060603F20E073002121742046FEF728FEB0
:104760002046E0E72DE9F0470446884615464FF01D
:10477000000915B92046BDE8F0871CB9042028704F
:104780002046F8E72078032803D00120287020462F
:10479000F1E7D4480078002803DD0F202870204678
:1047A000E9E701F08FFA8146A07A08B1012700E01D
:1047B0000027B8F1000F03D0B8F1010F3ED11BE084
:1047C0009FB93F20E0730021217400202070C6486B
:1047D0000068606000202081C3480460484601F002
:1047E00075FA00202870002605E0484601F06EFAB0
:1047F00049202870264628E005E0002301221946BA
:104800002046FEF75DFDA07A0028F6D13F20E07338
:104810000021217400202070B348006860600020EF
:104820002081B1480460484601F050FA012F01D1BF
:10483000FEF79BF800202870002606E0484601F0AD
:1048400045FA07202870264600BF00BF304692E791
:104850002DE9F04105460E46144600270CB9BDE887
:10486000F08115B904202070F9E72878032802D0D8
:1048700001202070F3E79B480078002802DD022029
:104880002070ECE799480078002802DD0D202070A8
:10489000E5E701F017FA07462889002808DD28898E
:1048A000401E2881384601F011FA00202070D6E71A
:1048B0008F48006890F8300040F001008C4909688A
:1048C00081F8300000208A49096881F83100884861
:1048D0000068C6852846FEF733FD384601F0F6F934
:1048E000FEF743F801F0EEF907468148006890F8BA
:1048F000310020B1012809D0022806D102E00020B1
:1049000020700BE00E20207008E000BF2946784898
:104910000068FEF7C0FC0A20207000BF00BF002026
:104920007349096881F830007149096881F83100DC
:104930006F490968C8616E4909680862384601F024
:10494000C5F900BF8BE72DE9F04105460F46144637
:104950004FF0000814B90020BDE8F0811DB9042013
:1049600020700020F8E72878032803D00120207069
:104970000020F1E701F0A6F98046A87A20B30026CE
:104980007FB1012F0CD107E002230122002128462C
:10499000FEF796FC701CC6B2A87A0028F4D109E094
:1049A00000BF0223012200212846FEF789FC701C6B
:1049B000C6B200BF00BF404601F088F9FDF7D5FF41
:1049C0000E2020703046C7E7404601F07FF90020F6
:1049D000207000BFC0E770B5044600250CB9042064
:1049E00070BD2078032801D00120F9E701F06AF9B1
:1049F0000546A07A60B10023012219462046FEF741
:104A00005FFC284601F062F9FDF7AFFF0020E7E701
:104A100020894FF6FF71884207D22089401C2081EF
:104A2000284601F053F90020DAE7284601F04EF954
:104A30003220D5E72DE9F04704460D464FF0000936
:104A400014B90420BDE8F0870DB90920FAE72078F1
:104A5000032801D00120F5E701F034F98146A07A5E
:104A6000A87104F10B07AE1C4FF0000807E017F81F
:104A7000010B06F8010B08F1010000F0FF08B8F186
:104A8000040FF4DB20892880484601F01FF900203C
:104A9000D8E72DE9F04104460E46154600270DB92A
:104AA000BDE8F08114B904202870F9E720780328C4
:104AB00002D001202870F3E701F004F90746002036
:104AC00028702089002801DD268105E0A07A08B938
:104AD000268101E049202870384601F0F7F800BF30
:104AE000DEE7000049000020340000204A000020DA
:104AF000580000202DE9F04F85B0814688460020FF
:104B00000090B9F11F0F06DBB9F1FF0F03D02A2087
:104B100005B0BDE8F08FB8F11F0F01DB2A20F7E7E1
:104B200001F0D0F80090FB4850F8280020B1009820
:104B300001F0CCF82820EBE7B9F1FF0F03D1F648DC
:104B4000006890F83290F34850F8295025B9009841
:104B500001F0BCF82920DBE7012D04D1009801F019
:104B6000B5F84320D4E74FEAE80708F007000390C0
:104B70000120B84000F0FF0A01210398814001F0B4
:104B8000FF0B0020E34941F82900084640F828506F
:104B900015F8346FA87802906878343D0190DF48AA
:104BA000815D01980140D1B1DC48805D0199884365
:104BB000DA4988550846805D28B9D94800780299B5
:104BC0008843D7490870D648007840EA0A00D4499B
:104BD0000870D248C05D40EA0B00D049C855EC6966
:104BE000D4B104F10B00805D0199884304F10B01FD
:104BF00088550846805D18B9A07A02998843A0724A
:104C0000A07A40EA0A00A07204F10B00C05D40EAFD
:104C10000B0004F10B01C855286A30B3286A0490D0
:104C2000049804681FE004F10B00805D019988433B
:104C300004F10B0188550846805D18B9A07A0299E5
:104C40008843A072A07A40EA0A00A07204F10B0027
:104C5000C05D40EA0B0004F10B01C8550498001D2B
:104C6000049004980468002CDDD185F8328085F822
:104C70003470039885F8330085F836A085F835B090
:104C8000009801F023F8A7480078012801D1FDF72A
:104C90006CFE00203CE72DE9FE4F06460F4690468D
:104CA0001C464FF000091F2C02DD2A20BDE8FE8FB4
:104CB00001F008F881469C480078002804DD484649
:104CC00001F004F83C20F1E7924850F8240060BB62
:104CD0000120904941F82400484600F0F7FF0023E6
:104CE00042463946304601F05CF88246002000908A
:104CF000019003460246514602902046FEF770FBA3
:104D0000054635B98748007801280CD1FDF72DFEFE
:104D100009E000F0D7FF814600207E4941F82400D9
:104D2000484600F0D3FF2846C0E7484600F0CEFFD3
:104D30002820BBE702F0010343B102F002032BB1CC
:104D400002E0491E002308C00029FAD170472DE96E
:104D5000F04F85B081468A4693461C46DDE90F78C0
:104D6000129D002003901F2C03DD2A2005B0BDE812
:104D7000F08F00F0A7FF03906B480078002804DD57
:104D8000039800F0A3FF3C20F0E7624850F82400AD
:104D900088BB01205F4941F82400039800F096FF8A
:104DA0002A4641463846FFF7C5FF2B465A4651462C
:104DB000484600F0F6FF04901198CDE90080029576
:104DC0003A4620460E9B0499FEF70AFB064636B982
:104DD0005448007801280CD1FDF7C7FD09E000F028
:104DE00071FF039000204B4941F82400039800F024
:104DF0006DFF3046BAE7FFE7039800F067FF282011
:104E0000B4E72DE9F041054600274748007800281F
:104E100002DD4020BDE8F0811F2D01D13E20F9E7E1
:104E20001F2D03DBFF2D01D02A20F3E700F04AFFFE
:104E30000746FF2D03D13848006890F832503548B6
:104E400050F8254024B9384600F040FF4320E1E700
:104E5000012C04D1384600F039FF3D20DAE714F880
:104E6000340F2E49085C6178884321782B4A5054CE
:104E700014F834091146085C30B994F83610284803
:104E80000078884326490870E06918B12046E16936
:104E9000FEF701FA206A18B12046216AFDF73BFDB2
:104EA000A66A16B13046FEF700FC0020E08584F8C3
:104EB000300084F831001D480078FF2804D21B48D8
:104EC0000078401C19490870384600F0FFFEFEF7D4
:104ED000E1F900F0F7FE074614480078002804DDE9
:104EE00012480078401E11490870204600F049FF22
:104EF0000F480078401E0E4908700020054941F80F
:104F00002500A069C0B9002061698861094960690C
:104F1000086017E010070020580000204E00002015
:104F20004D00002052000020490000204A000020CF
:104F30005300002064000020D4E905014861D4E951
:104F400005108861FD4800686061FC4804603F20EE
:104F500084F84C0000214D200155384600F0B6FE83
:104F6000F7480078012801D1FDF7FFFC002051E748
:104F70002DE9F041044600271F2C02D13E20BDE858
:104F8000F0811F2C03DBFF2C01D02A20F7E7FF2C38
:104F90000BD100F097FE0746EA48006890F83760AA
:104FA000384600F093FE3046E9E700F08BFE0746F6
:104FB000E54850F8245025B9384600F087FE4320D4
:104FC000DDE7012D04D1384600F080FE3D20D6E714
:104FD0003F2085F83700384600F078FE0020CEE705
:104FE0002DE9F04705460F4614464FF0000814B966
:104FF0000020BDE8F0871F2D05DDFF2D03D02A20FE
:1050000020700020F5E71FB90C2020700020F0E789
:10501000CE480078002803DD112020700020E8E74A
:1050200000F050FE8046FF2D03D1C648006890F87E
:105030003250C54850F8256036B9404600F046FE6B
:10504000432020700020D4E7012E06D1404600F016
:105050003DFE432020700020CBE706F14C0138468E
:10506000FDF7BCFB8146404600F030FE002020707A
:105070004846BEE72DE9F04705460F4614464FF077
:1050800000090CB9BDE8F0871F2D04DDFF2D02D00B
:105090002A202070F6E717B90C202070F2E7AB4801
:1050A0000078002802DD12202070EBE700F00AFEF5
:1050B0008146FF2D03D1A348006890F83250A248E2
:1050C00050F825602EB9484600F000FE43202070BD
:1050D000D8E7012E05D1484600F0F8FD43202070A6
:1050E000D0E73846FDF7C7FB8046B8F10F0F05DD66
:1050F000484600F0EBFD41202070C3E7394606F139
:105100004C00FDF76BFB484600F0E0FD00202070EE
:1051100000BFB7E770B5054600261F2D01DB2A202A
:1051200070BD00F0CFFD0646874850F8254024B9F1
:10513000304600F0CBFD4620F2E7012C04D130468A
:1051400000F0C4FD4320EBE794F8300000F00800C5
:1051500060B314F8300F20F00800207014F8300904
:10516000F8B9E08DC8B93434A07879490978084392
:105170007749087020787749085C6178084314F80B
:105180003419744A5054304600F0A0FD6C48007841
:10519000012809D1FDF7E9FB06E0304600F096FD55
:1051A00002E0304600F092FD0020B9E7304600F002
:1051B0008DFD4420B4E72DE9F04706460C464FF03C
:1051C000000A1F2E04DDFF2E02D02A20BDE8F08742
:1051D0000CB90920FAE700202060606000F072FD41
:1051E0008246FF2E03D15748006890F83260564837
:1051F00050F8265025B9504600F068FD4320E5E7F9
:10520000012D04D1504600F061FD4320DEE7287CEB
:1052100000F0010020B9504600F058FD4520D5E7C8
:105220000027D5F80C90D5F80880504600F04EFDC8
:1052300000E07F1C58F8041B0029FAD0B800206059
:10524000A9EB0700800060600020BFE72DE9F04176
:1052500005464FF000081F2D02D14720BDE8F08120
:105260001F2D03DBFF2D01D02A20F7E700F02AFDD8
:105270008046FF2D05D13348006890F83250012652
:1052800008E03048006890F83200A84201D10126B9
:1052900000E000262C4850F8254024B9404600F094
:1052A00015FD4820DAE7012C04D1404600F00EFD40
:1052B0004320D3E794F834702648C05D94F8351045
:1052C00088432449C8550846C05D30B994F8361063
:1052D0001F48007888431E49087094F8300040F059
:1052E000080084F83000404600F0F0FC012E01D1A7
:1052F000FDF73BFB0020B1E72DE9F04104460E46E7
:1053000000271F2C04DDFF2C02D02A20BDE8F081ED
:105310000EB90920FAE700F0D5FC0746FF2C03D1AF
:105320000848006890F83240074850F824509DB96A
:10533000384600F0CBFC2920E8E700005C000020A4
:1053400052000020580000201007002049000020D3
:105350004D0000204E000020012D04D1384600F001
:10536000B5FC4320D2E75C2229463046FEF72EF8F2
:10537000384600F0ABFC0020C8E7000070B50546D9
:10538000002674480078002800DD70BD002D23DD64
:1053900000F098FC06467048006890F834406F486A
:1053A000005D6D49096891F8351088436B490855CF
:1053B0000846005D40B96848006890F836106848B3
:1053C000007888436649087063480068C5853046A0
:1053D00000F07CFCFDF7C9FA00BFD6E72DE9F047E5
:1053E00080460D4616461C465A480078002802DDC5
:1053F0005520BDE8F087B8F1000F04D11DB916B9EA
:105400000CB95420F5E73B2D01DD5120F1E73B2E8F
:1054100001DD5220EDE7B4F57A7F01DB5320E8E7A8
:105420004FF47A7060434FF47A71B0FBF1F14FF4AE
:10543000616008FB00F0C5EB051200EB8200304410
:1054400000EB4002C2EBC01001EBC0074FEA174966
:10545000BFB23846FFF792FF0BE04FF40040FFF772
:105460008DFF4FF40040FFF789FFA9F101001FFAFB
:1054700080F9B9F1000FF0DC0020BAE770B50546FD
:1054800000261F2D01DB2A2070BD00F01BFC064604
:10549000344850F8254024B9304600F017FC43202A
:1054A000F2E7012C04D1304600F010FC4320EBE77A
:1054B000E08D20B9304600F009FC5020E4E70020E0
:1054C000E08594F8300000F0370040B114F8300F58
:1054D00020F03700207001206070303C02E0002096
:1054E00084F8310094F8300000F00800A8B9343492
:1054F000A0781B4909780843194908702078174992
:10550000085C6178084314F83419144A5054304642
:1055100000F0DCFBFDF729FA02E0304600F0D6FB94
:105520000020B1E770B5002500F0CCFB05460E4821
:105530000468284600F0CAFB204670BD70B50446DA
:10554000002500F0BFFB054607480460284600F030
:10555000BDFB70BD49000020580000204E00002017
:105560004D000020100700207400002010B5FA48FC
:105570000068FFF730FA10BDF848006808B900204D
:105580007047F6480168F54AC86810600020C86096
:105590000861F3480088401CF14A1080F1480088F7
:1055A000401EF04A10800846EAE708B56A46002126
:1055B000E9480068FFF74CF908BD2DE9F05F0646A1
:1055C0000F4690469B46DDE90B9515B90020BDE8D6
:1055D000F09FB8F1010F08D0B8F1020F0BD11FB93D
:1055E000832028700020F2E709E01EB9822028708D
:1055F0000020ECE703E0842028700020E7E700BFEC
:10560000D9480078002803DD8B2028700020DEE7D1
:10561000FFF7CBFFFFF7B0FF04462CB9FFF7A6FF5B
:10562000862028700020D2E7012084F83100A6618E
:10563000E76184F83080C4F804B00A98A060B9F13A
:10564000000F18D04846FDF716F98246BAF1100F40
:1056500005DA494604F12000FDF7C0F80BE02320ED
:1056600084F820000021212001558C202870FFF7AC
:105670007DFF2046ABE7FFF779FF0020287020462A
:10568000A5E7002180F8311080F83010C161416138
:10569000416081603F2180F82010002221210A54BE
:1056A00000210161AD490968C160AC490860AC499D
:1056B0000988491EAA4A1180AA490988491CA94A91
:1056C0001180704730B5057D05F00704A74D05EB47
:1056D000C4031D68854205D1C168196039B1002530
:1056E0000D6104E00169C268CA6002B1116101255F
:1056F00080F831500025C56005619D886D1E9D8034
:1057000030BD70B505460C460CB9002070BD1DB902
:105710008A2020700020F9E72878642803D08920A7
:1057200020700020F2E790480078002803DD8B20ED
:1057300020700020EAE7FFF738FF95F83100D8B174
:1057400001280FD002280ED003281BD12846FFF7CE
:10575000B9FF2846FFF795FFFFF708FF00202070EC
:105760000120D3E700BF2846FFF78BFFFFF7FEFEBF
:10577000002020700120C9E7FFF7F8FE8720207085
:105780000020C3E7FFF7F2FE8D2020700020BDE768
:105790002DE9F04105460E46144614B90020BDE837
:1057A000F0811EB9882020700020F8E71DB98A20FA
:1057B00020700020F3E72878642803D08920207027
:1057C0000020ECE768480078002803DD11202070F5
:1057D0000020E4E7FFF7E9FE95F8310098B10128D1
:1057E00004D0022803D0032813D100BF00BF05F165
:1057F00020013046FCF7F2FF0746FFF7B7FE002016
:1058000020703846CBE7FFF7B1FE872020700020DC
:10581000C5E7FFF7ABFE8D2020700020BFE770B515
:1058200005460C460CB9002070BD1DB98A202070B9
:105830000020F9E72878642803D089202070002010
:10584000F2E749480078002803DD8B202070002013
:10585000EAE7FFF7AAFE95F8310070B301280DD0F2
:10586000022825D003282FD1414968690968461AC2
:10587000FFF77CFE002020703046D5E795F8300019
:1058800001280CD0022809D1A86908B9EE6900E006
:10589000AE69FFF76BFE0020207006E000BFAE6926
:1058A000FFF764FE0020207000BF00BF3046BBE75A
:1058B000FFF75CFE00202070B6E7FFE7FFF756FE1B
:1058C000872020700020AFE7FFF750FE8D2020706A
:1058D0000020A9E770B505460C460CB9002070BD44
:1058E0001DB98A2020700020F9E72878642803D0A9
:1058F000892020700020F2E71B480078002803DD93
:105900008B2020700020EAE7FFF74FFE95F831600A
:1059100036B1012E05D0022E04D0032E06D102E0AE
:1059200000BF00BF00BF0020207002E08D2020706B
:1059300000BF00BFFFF71AFE3046D0E770B50B4638
:10594000032580F83150012B14D1094EC569366802
:10595000354445611BE000008000002088000020E5
:105960007A00002078000020490000205C1400200C
:105970007C00002085692DB9BC4EC5693668354468
:10598000456104E0B94E8569366835444561057D59
:1059900005F00704B64D05EBC4010D682DB908608C
:1059A0000025C56001258D8006E00A680860C26098
:1059B00010618D886D1C8D800025056170BD70B5EE
:1059C00005460C460CB9002070BD1DB98A20207018
:1059D0000020F9E72878642803D08920207000206F
:1059E000F2E7A4480078002803DD8B202070002017
:1059F000EAE7FFF7DAFD95F83100E8B1012810D0A9
:105A000002280FD003281DD12846FFF75BFE002196
:105A10002846FFF793FFFFF7A9FD00202070012023
:105A2000D2E700BF00212846FFF788FFFFF79EFD61
:105A3000002020700120C7E7FFF798FD8720207025
:105A40000020C1E7FFF792FD8D2020700020BBE70A
:105A50002DE9F04105460F4690461C4614B900203A
:105A6000BDE8F0811DB98A2020700020F8E7287871
:105A7000642803D0892020700020F1E77D48007859
:105A8000002803DD8B2020700020E9E7FFF78DFD63
:105A900095F8310090B301282AD0022827D0032896
:105AA00033D12846FFF70EFE00202070B7B1032F38
:105AB00002D0042F13D108E06E681EB12846A968F1
:105AC000B04701E08F2020700CE06E681EB14146A7
:105AD0002846B04701E08F20207003E002E08420D8
